{
    "contractName": "Crowdfunding",
    "abi": [
        {
            "inputs": [
                {
                    "internalType": "uint256",
                    "name": "_minInvestAmount",
                    "type": "uint256"
                },
                {
                    "internalType": "uint256",
                    "name": "_fee",
                    "type": "uint256"
                }
            ],
            "stateMutability": "nonpayable",
            "type": "constructor"
        },
        {
            "anonymous": false,
            "inputs": [
                {
                    "indexed": false,
                    "internalType": "uint256",
                    "name": "projectId",
                    "type": "uint256"
                },
                {
                    "indexed": false,
                    "internalType": "uint256",
                    "name": "amount",
                    "type": "uint256"
                },
                {
                    "indexed": false,
                    "internalType": "address",
                    "name": "investor",
                    "type": "address"
                }
            ],
            "name": "Funded",
            "type": "event"
        },
        {
            "anonymous": false,
            "inputs": [
                {
                    "indexed": true,
                    "internalType": "address",
                    "name": "previousOwner",
                    "type": "address"
                },
                {
                    "indexed": true,
                    "internalType": "address",
                    "name": "newOwner",
                    "type": "address"
                }
            ],
            "name": "OwnershipTransferred",
            "type": "event"
        },
        {
            "anonymous": false,
            "inputs": [
                {
                    "components": [
                        {
                            "internalType": "uint256",
                            "name": "id",
                            "type": "uint256"
                        },
                        {
                            "internalType": "bytes32",
                            "name": "name",
                            "type": "bytes32"
                        },
                        {
                            "internalType": "bytes32",
                            "name": "description",
                            "type": "bytes32"
                        },
                        {
                            "internalType": "bytes32",
                            "name": "url",
                            "type": "bytes32"
                        },
                        {
                            "internalType": "uint256",
                            "name": "goal",
                            "type": "uint256"
                        },
                        {
                            "internalType": "uint256",
                            "name": "raisedAmount",
                            "type": "uint256"
                        },
                        {
                            "internalType": "uint256",
                            "name": "endDateTs",
                            "type": "uint256"
                        },
                        {
                            "internalType": "address",
                            "name": "founder",
                            "type": "address"
                        },
                        {
                            "internalType": "bool",
                            "name": "isWithdrawn",
                            "type": "bool"
                        }
                    ],
                    "indexed": false,
                    "internalType": "struct Crowdfunding.Project",
                    "name": "",
                    "type": "tuple"
                }
            ],
            "name": "ProjectCreated",
            "type": "event"
        },
        {
            "anonymous": false,
            "inputs": [
                {
                    "indexed": false,
                    "internalType": "uint256",
                    "name": "projectId",
                    "type": "uint256"
                },
                {
                    "indexed": false,
                    "internalType": "uint256",
                    "name": "amount",
                    "type": "uint256"
                },
                {
                    "indexed": false,
                    "internalType": "address",
                    "name": "founder",
                    "type": "address"
                }
            ],
            "name": "RaisedFundsReceived",
            "type": "event"
        },
        {
            "anonymous": false,
            "inputs": [
                {
                    "indexed": false,
                    "internalType": "uint256",
                    "name": "projectId",
                    "type": "uint256"
                },
                {
                    "indexed": false,
                    "internalType": "uint256",
                    "name": "amount",
                    "type": "uint256"
                },
                {
                    "indexed": false,
                    "internalType": "address",
                    "name": "investor",
                    "type": "address"
                }
            ],
            "name": "ReFunded",
            "type": "event"
        },
        {
            "anonymous": false,
            "inputs": [
                {
                    "indexed": false,
                    "internalType": "uint256",
                    "name": "amount",
                    "type": "uint256"
                }
            ],
            "name": "Withdraw",
            "type": "event"
        },
        {
            "inputs": [
                {
                    "internalType": "bytes32",
                    "name": "name",
                    "type": "bytes32"
                },
                {
                    "internalType": "bytes32",
                    "name": "description",
                    "type": "bytes32"
                },
                {
                    "internalType": "bytes32",
                    "name": "url",
                    "type": "bytes32"
                },
                {
                    "internalType": "uint256",
                    "name": "goal",
                    "type": "uint256"
                },
                {
                    "internalType": "uint256",
                    "name": "duration",
                    "type": "uint256"
                }
            ],
            "name": "createProject",
            "outputs": [],
            "stateMutability": "nonpayable",
            "type": "function"
        },
        {
            "inputs": [],
            "name": "earnedFees",
            "outputs": [
                {
                    "internalType": "uint256",
                    "name": "",
                    "type": "uint256"
                }
            ],
            "stateMutability": "view",
            "type": "function"
        },
        {
            "inputs": [],
            "name": "fee",
            "outputs": [
                {
                    "internalType": "uint256",
                    "name": "",
                    "type": "uint256"
                }
            ],
            "stateMutability": "view",
            "type": "function"
        },
        {
            "inputs": [
                {
                    "internalType": "uint256",
                    "name": "id",
                    "type": "uint256"
                }
            ],
            "name": "fundInProject",
            "outputs": [],
            "stateMutability": "payable",
            "type": "function"
        },
        {
            "inputs": [
                {
                    "internalType": "address",
                    "name": "",
                    "type": "address"
                },
                {
                    "internalType": "uint256",
                    "name": "",
                    "type": "uint256"
                }
            ],
            "name": "investments",
            "outputs": [
                {
                    "internalType": "uint256",
                    "name": "",
                    "type": "uint256"
                }
            ],
            "stateMutability": "view",
            "type": "function"
        },
        {
            "inputs": [],
            "name": "minInvestAmount",
            "outputs": [
                {
                    "internalType": "uint256",
                    "name": "",
                    "type": "uint256"
                }
            ],
            "stateMutability": "view",
            "type": "function"
        },
        {
            "inputs": [],
            "name": "owner",
            "outputs": [
                {
                    "internalType": "address",
                    "name": "",
                    "type": "address"
                }
            ],
            "stateMutability": "view",
            "type": "function"
        },
        {
            "inputs": [],
            "name": "projectId",
            "outputs": [
                {
                    "internalType": "uint256",
                    "name": "",
                    "type": "uint256"
                }
            ],
            "stateMutability": "view",
            "type": "function"
        },
        {
            "inputs": [
                {
                    "internalType": "uint256",
                    "name": "",
                    "type": "uint256"
                }
            ],
            "name": "projects",
            "outputs": [
                {
                    "internalType": "uint256",
                    "name": "id",
                    "type": "uint256"
                },
                {
                    "internalType": "bytes32",
                    "name": "name",
                    "type": "bytes32"
                },
                {
                    "internalType": "bytes32",
                    "name": "description",
                    "type": "bytes32"
                },
                {
                    "internalType": "bytes32",
                    "name": "url",
                    "type": "bytes32"
                },
                {
                    "internalType": "uint256",
                    "name": "goal",
                    "type": "uint256"
                },
                {
                    "internalType": "uint256",
                    "name": "raisedAmount",
                    "type": "uint256"
                },
                {
                    "internalType": "uint256",
                    "name": "endDateTs",
                    "type": "uint256"
                },
                {
                    "internalType": "address",
                    "name": "founder",
                    "type": "address"
                },
                {
                    "internalType": "bool",
                    "name": "isWithdrawn",
                    "type": "bool"
                }
            ],
            "stateMutability": "view",
            "type": "function"
        },
        {
            "inputs": [
                {
                    "internalType": "uint256",
                    "name": "id",
                    "type": "uint256"
                }
            ],
            "name": "receiveRaisedFunds",
            "outputs": [],
            "stateMutability": "payable",
            "type": "function"
        },
        {
            "inputs": [
                {
                    "internalType": "uint256",
                    "name": "id",
                    "type": "uint256"
                }
            ],
            "name": "refundFromProject",
            "outputs": [],
            "stateMutability": "payable",
            "type": "function"
        },
        {
            "inputs": [],
            "name": "renounceOwnership",
            "outputs": [],
            "stateMutability": "nonpayable",
            "type": "function"
        },
        {
            "inputs": [
                {
                    "internalType": "address",
                    "name": "newOwner",
                    "type": "address"
                }
            ],
            "name": "transferOwnership",
            "outputs": [],
            "stateMutability": "nonpayable",
            "type": "function"
        },
        {
            "inputs": [],
            "name": "withdraw",
            "outputs": [],
            "stateMutability": "nonpayable",
            "type": "function"
        },
        {
            "stateMutability": "payable",
            "type": "receive"
        }
    ],
    "bytecode": "60c060405234801561001057600080fd5b50604051610e04380380610e0483398101604081905261002f91610096565b61003833610046565b60809190915260a0526100ba565b600080546001600160a01b038381166001600160a01b0319831681178455604051919092169283917f8be0079c531659141344cd1fd0a4f28419497f9722a3daafe3b4186f6b6457e09190a35050565b600080604083850312156100a957600080fd5b505080516020909101519092909150565b60805160a051610d1e6100e66000396000818161031a0152610a4f015260006102d00152610d1e6000f3fe6080604052600436106100e15760003560e01c8063715018a61161007f578063b162d5dc11610059578063b162d5dc146102be578063b1b3ffd9146102f2578063ddca3f4314610308578063f2fde38b1461033c57600080fd5b8063715018a6146102615780638da5cb5b14610276578063a60f048e1461029e57600080fd5b80633e6d9770116100bb5780633e6d9770146101df5780633fafa127146102255780635e0a92381461023b578063661a4e6e1461024e57600080fd5b8063107046bd146100ed5780631d21365e146101b55780633ccfd60b146101ca57600080fd5b366100e857005b600080fd5b3480156100f957600080fd5b50610161610108366004610b62565b60016020819052600091825260409091208054918101546002820154600383015460048401546005850154600686015460079096015494959394929391929091906001600160a01b03811690600160a01b900460ff1689565b60408051998a5260208a0198909852968801959095526060870193909352608086019190915260a085015260c08401526001600160a01b031660e08301521515610100820152610120015b60405180910390f35b6101c86101c3366004610b62565b61035c565b005b3480156101d657600080fd5b506101c86104a9565b3480156101eb57600080fd5b506102176101fa366004610b97565b600260209081526000928352604080842090915290825290205481565b6040519081526020016101ac565b34801561023157600080fd5b5061021760035481565b6101c8610249366004610b62565b61052a565b6101c861025c366004610b62565b61064a565b34801561026d57600080fd5b506101c86107d0565b34801561028257600080fd5b506000546040516001600160a01b0390911681526020016101ac565b3480156102aa57600080fd5b506101c86102b9366004610bc1565b6107e4565b3480156102ca57600080fd5b506102177f000000000000000000000000000000000000000000000000000000000000000081565b3480156102fe57600080fd5b5061021760045481565b34801561031457600080fd5b506102177f000000000000000000000000000000000000000000000000000000000000000081565b34801561034857600080fd5b506101c8610357366004610bfc565b610973565b60008181526001602052604090206004810154600582015411158015610392575060008281526001602052604090206006015442115b80156103b757506000828152600160205260409020600701546001600160a01b031633145b6104195760405162461bcd60e51b815260206004820152602860248201527f43726f776466756e64696e673a2021726169736520776974686472617720636f6044820152676e646974696f6e7360c01b60648201526084015b60405180910390fd5b6005810154604051339180156108fc02916000818181858888f19350505050158015610449573d6000803e3d6000fd5b5060078101805460ff60a01b1916600160a01b179055600581015460408051848152602081019290925233908201527f50ccda41da337cddaf3425b903573f36e347723fe9f8ed442f3a117b559deae19060600160405180910390a15050565b6104b16109ec565b600454600080546040516001600160a01b039091169183156108fc02918491818181858888f193505050501580156104ed573d6000803e3d6000fd5b5060006004556040518181527f5b6b431d4476a211bb7d41c20d1aab9ae2321deee0d20be3d9fc9b1093fa6e3d906020015b60405180910390a150565b6000818152600160205260409020600481015460059091015411158015610561575060008181526001602052604090206006015442115b6105ad5760405162461bcd60e51b815260206004820181905260248201527f43726f776466756e64696e673a2021726566756e6420636f6e646974696f6e736044820152606401610410565b33600081815260026020908152604080832085845290915280822054905181156108fc0292818181858888f193505050501580156105ef573d6000803e3d6000fd5b503360008181526002602090815260408083208584528252808320839055805185815291820192909252908101919091527f91f5091195d00093b385e9dbbe571cebb17d8cdd9d5e66a8d342a5927056d7b19060600161051f565b60008181526001602052604081209061066234610a46565b90506106936040518060400160405280600d81526020016c1c995b585a5b99d05b5bdd5b9d609a1b81525082610aa8565b60008381526001602052604090206004810154600590910154111580156106cb57506000838152600160205260409020600601544211155b6107175760405162461bcd60e51b815260206004820152601f60248201527f43726f776466756e64696e673a2021726169736520636f6e646974696f6e73006044820152606401610410565b8082600501600082825461072b9190610c34565b90915550503360009081526002602090815260408083208684529091528120805483929061075a908490610c34565b909155505060405130903480156108fc02916000818181858888f1935050505015801561078b573d6000803e3d6000fd5b506040805184815260208101839052338183015290517f2fdf62f5c0eab6215e63610ec1dc0acf8ed2f6d38ab5bdf08fcffc99be3c6ba89181900360600190a1505050565b6107d86109ec565b6107e26000610af1565b565b600060405180610120016040528060035481526020018781526020018681526020018581526020018481526020016000815260200183426108259190610c34565b8152336020808301919091526000604092830181905260038054825260018084528483208651815593860151848201559385015160028401556060850151838201556080850151600484015560a0850151600584015560c0850151600684015560e0850151600790930180546101008701511515600160a01b026001600160a81b03199091166001600160a01b03959095169490941793909317909255815493945091929091906108d7908490610c34565b90915550506040805182518152602080840151908201528282015181830152606080840151908201526080808401519082015260a0808401519082015260c0808401519082015260e0808401516001600160a01b0316908201526101008084015115159082015290517f5625208b21cb389b48bd1ddc1908a03d4fb9a16c4ec85d38744571e3cbfe275a918190036101200190a1505050505050565b61097b6109ec565b6001600160a01b0381166109e05760405162461bcd60e51b815260206004820152602660248201527f4f776e61626c653a206e6577206f776e657220697320746865207a65726f206160448201526564647265737360d01b6064820152608401610410565b6109e981610af1565b50565b6000546001600160a01b031633146107e25760405162461bcd60e51b815260206004820181905260248201527f4f776e61626c653a2063616c6c6572206973206e6f7420746865206f776e65726044820152606401610410565b60006064610a747f000000000000000000000000000000000000000000000000000000000000000084610c47565b610a7e9190610c5e565b90508060046000828254610a929190610c34565b90915550610aa290508183610c80565b92915050565b610aed8282604051602401610abe929190610c93565b60408051601f198184030181529190526020810180516001600160e01b0316632d839cb360e21b179052610b41565b5050565b600080546001600160a01b038381166001600160a01b0319831681178455604051919092169283917f8be0079c531659141344cd1fd0a4f28419497f9722a3daafe3b4186f6b6457e09190a35050565b80516a636f6e736f6c652e6c6f67602083016000808483855afa5050505050565b600060208284031215610b7457600080fd5b5035919050565b80356001600160a01b0381168114610b9257600080fd5b919050565b60008060408385031215610baa57600080fd5b610bb383610b7b565b946020939093013593505050565b600080600080600060a08688031215610bd957600080fd5b505083359560208501359550604085013594606081013594506080013592509050565b600060208284031215610c0e57600080fd5b610c1782610b7b565b9392505050565b634e487b7160e01b600052601160045260246000fd5b80820180821115610aa257610aa2610c1e565b8082028115828204841417610aa257610aa2610c1e565b600082610c7b57634e487b7160e01b600052601260045260246000fd5b500490565b81810381811115610aa257610aa2610c1e565b604081526000835180604084015260005b81811015610cc15760208187018101516060868401015201610ca4565b506000606082850101526060601f19601f830116840101915050826020830152939250505056fea2646970667358221220e9e776a3a59029f5e792e6b03044caffdf805f530273bba24803dfd58bccaaed64736f6c63430008130033",
    "sourcePath": "/Users/danildovgal/Desktop/crowdfunding-contract/contracts/CrowdFunding.sol",
    "compiler": {
        "name": "solc",
        "version": "0.8.19+commit.7dd6d404"
    },
    "functionHashes": {
        "createProject(bytes32,bytes32,bytes32,uint256,uint256)": "a60f048e",
        "earnedFees()": "b1b3ffd9",
        "fee()": "ddca3f43",
        "fundInProject(uint256)": "661a4e6e",
        "investments(address,uint256)": "3e6d9770",
        "minInvestAmount()": "b162d5dc",
        "owner()": "8da5cb5b",
        "projectId()": "3fafa127",
        "projects(uint256)": "107046bd",
        "receiveRaisedFunds(uint256)": "1d21365e",
        "refundFromProject(uint256)": "5e0a9238",
        "renounceOwnership()": "715018a6",
        "transferOwnership(address)": "f2fde38b",
        "withdraw()": "3ccfd60b"
    },
    "gasEstimates": {
        "creation": {
            "codeDepositCost": "671600",
            "executionCost": "infinite",
            "totalCost": "infinite"
        },
        "external": {
            "createProject(bytes32,bytes32,bytes32,uint256,uint256)": "infinite",
            "earnedFees()": "2339",
            "fee()": "infinite",
            "fundInProject(uint256)": "infinite",
            "investments(address,uint256)": "2635",
            "minInvestAmount()": "infinite",
            "owner()": "2346",
            "projectId()": "2340",
            "projects(uint256)": "17492",
            "receiveRaisedFunds(uint256)": "infinite",
            "refundFromProject(uint256)": "infinite",
            "renounceOwnership()": "infinite",
            "transferOwnership(address)": "28421",
            "withdraw()": "infinite"
        },
        "internal": {
            "_chargeFees(uint256)": "infinite",
            "_isEnded(uint256)": "infinite",
            "_isFounder(uint256)": "infinite",
            "_isRaised(uint256)": "infinite"
        }
    }
}